:100000000C945E000C94B3070C94E0070C948600EB
:100010000C9486000C9486000C9486000C94C1030A
:100020000C9486000C9486000C9486000C94860038
:100030000C9486000C9486000C9486000C94860028
:100040000C94C3060C9486000C9486000C948600D5
:100050000C9486000C9486000C9486000C94860008
:100060000C9486000C948600000000080002010039
:100070000003040700000000000000000102040863
:100080001020408001020408102001020408102002
:10009000040404040404040402020202020203032E
:1000A0000303030300000000250028002B000000CC
:1000B0000000240027002A00C502B10311241FBE3E
:1000C000CFEFD8E0DEBFCDBF11E0A0E0B1E0E0E9C6
:1000D000F0E102C005900D92AE30B107D9F722E0F1
:1000E000AEE0B1E001C01D92A93DB207E1F710E01A
:1000F000CCEBD0E004C02297FE010E944208C83B2E
:10010000D107C9F70E940E080C9446080C94000011
:100110008EBD00000DB407FEFDCF8EB50895CF93C0
:10012000DF93EC01862F688379835B834A833D8369
:100130002C8361E00E94F50561E08A810E94F5054B
:1001400060E08C810E94F5058CB58F7D8CBD8CB5EF
:10015000837F8CBDDF91CF910C949605CF93DF9375
:10016000EC0160E088810E942E066AE070E080E089
:1001700090E00E94300761E088810E942E0664E1D1
:1001800070E080E090E0DF91CF910C9430071F93F6
:10019000CF93DF93EC01162F60E08A810E942E0638
:1001A000812F880F8E770E94880080E00E9488004F
:1001B000182F61E08A810E942E06812FDF91CF9156
:1001C0001F9108950F931F93CF93DF938C01EB0141
:1001D00060E0FC0182810E942E06CE0123E096950C
:1001E00087952A95E1F780680E9488008C2F829578
:1001F000880F807E0E94880080E00E948800C82FBF
:1002000061E0F80182810E942E068C2FDF91CF9150
:100210001F910F910895EF92FF921F93CF93DF9359
:100220001F92CDB7DEB77C01162F60E0FC01828102
:1002300049830E942E06812F880F8E7781600E944D
:1002400088004981842F0E94880061E0F701828143
:100250000F90DF91CF911F91FF90EF900C942E069D
:10026000EF92FF920F931F93CF93DF931F92CDB71F
:10027000DEB78C017B0160E0FC01828149830E9432
:100280002E06C70133E0969587953A95E1F7806889
:100290000E9488008E2D8295880F807E80610E944A
:1002A00088004981842F0E94880061E0F8018281E2
:1002B0000F90DF91CF911F910F91FF90EF900C94D1
:1002C0002E061F93CF93DF93EC01162F472F62E08A
:1002D0000E940B01412F61E0CE01DF91CF911F9170
:1002E0000C940B011F93CF93DF93EC01162F472F34
:1002F00064E00E940B01412F63E0CE01DF91CF91BA
:100300001F910C940B0146EF62E30C940B01462FF6
:1003100050E04B50510964E0440F551F6A95E1F7D6
:10032000436060E072E00C943001CF93DF93EC0106
:1003300048E968E10E940B0145E96EE2CE010E94A6
:100340000B0143E060E072E0CE010E94300141E029
:1003500061E072E0CE010E94300140E862E072E0AC
:10036000CE010E94300140E966E072E0CE010E94B9
:10037000300140E867E072E0CE010E94300140E1C8
:1003800068E072E0CE010E94300141E260E272E07A
:10039000CE010E94300140E86AE3CE010E940B01C9
:1003A00040E66FE3CE010E940B0140E46EE3CE0114
:1003B0000E940B01CE010E9483016CE0CE010E94DD
:1003C000870144E066E3CE010E940B0140E066E352
:1003D000CE010E940B0161E070E080E090E0DF91CF
:1003E000CF910C943007CF93DF93EA01809187017E
:1003F000882321F010928701FB01099580918601E5
:10040000882331F010928601FE01DF91CF9109948B
:10041000DF91CF910895662311F041E001C040E0E3
:1004200060E00C940B018FE091E0089560938801E7
:10043000089541E06DE00C940B0144E069E30C94F5
:100440000B0140E069E30C940B01AF92BF92CF9295
:10045000DF92EF92FF920F931F93CF93DF93EC0104
:1004600061E30E94C700B82E83FF61C080918701BD
:100470008F5F80938701F894CE010E941D0260E097
:1004800073E0CE010E94E200A82E809188018823AB
:1004900049F0FBE8EF2EF1E0FF2E00E010E0CA2C5F
:1004A000D12C07C0E0E1EE2EE1E0FE2E00E010E0EE
:1004B0000EC00C151D05B4F70F5F1F4FB8017D5F0F
:1004C000CE010E94E200F70181937F01F2CF2091DB
:1004D0000F0130E04091890150918A01241B350BB6
:1004E0000217130764F40F5F1F4FB801675F7C4F5B
:1004F000CE010E94E200F70181937F01E8CFA09234
:100500000F010A2D10E0B8016F5F7C4FCE010E94F1
:10051000E20080938401B8016E5F7C4FCE010E949F
:10052000E20080938501CE010E9421027894B0FE02
:1005300021C0809186018F5F8093860164E2CE01A5
:100540000E94C70090E09C012E7F41E0232B09F020
:1005500040E020910E0140FB20F976E095958795CB
:100560007A95E1F78370880F922F997F982B977F68
:1005700090930E01DF91CF911F910F91FF90EF901B
:10058000DF90CF90BF90AF9008958BE090E0909374
:100590008A0180938901089508958AE092E00C947D
:1005A00025024CEC52E06DE773E08AE092E00C9497
:1005B000F3011F93CF93DF93162FEA0140E0682FDA
:1005C00080910A010E94A40440E0612F80910801FB
:1005D0000E94A404BE0180910601DF91CF911F917A
:1005E0000C9464060F931F93CF93DF9317B880E0AA
:1005F0000E947C040AE011E040E060E0F8018081A4
:100600000E94A404C8E0D1E040E060E088810E943C
:10061000A40461E0809106010E94F50544E650E0E3
:1006200064E670E0F80180810E941C0544E650E019
:1006300064E670E088810E941C0561E08EE00E9403
:100640002E0661E08FE00E942E0661E080E10E94AC
:100650002E0661E081E10E942E0640E050E060E05D
:1006600070E080E090E00E94D9028AE092E00E946F
:10067000AE008AE092E00E9495016FED77E08AE09B
:1006800092E00E9461016CE08AE092E00E948701A2
:1006900062E072E48AE092E00E94720161E08AE026
:1006A00092E00E940B0261E08AE092E00E94160252
:1006B00041E050E06DEC72E080E00E949307789496
:1006C00086B190E0809590958F7099279093150250
:1006D00080931402409690931102809310029C0123
:1006E000220F331F280F391F309313022093120259
:1006F000DF91CF911F910F9108950F931F93CF9387
:10070000DF938AE092E00E941302E0911202F091DE
:100710001302E80FF91F038110E08AE092E00E94C3
:100720001302E0911202F0911302E80FF91FC28147
:10073000D0E08AE092E00E941302E0911202F09170
:100740001302E80FF91F8181A801BE0190E00E9409
:10075000D9028AE092E0DF91CF911F910F910C9422
:100760001902209100013091010140910201509144
:10077000030160910401709105018AE092E00C94FC
:100780008F001F920F920FB60F921124CF92DF921B
:10079000FF920F931F932F933F934F935F936F930A
:1007A0007F938F939F93AF93BF93CF93DF93EF93F9
:1007B000FF9380910C018F5F80930C01882339F0A7
:1007C0008CE192E0EAE1F2E0A7E1B2E05BC0ECE1AB
:1007D000F2E04AE152E027E132E08BE1C82E82E00C
:1007E000D82EAEE1B2E0CD010197EC01F880E60130
:1007F000F11003C08C918823F1F0888190E0608132
:1008000070E08C01061B170B1016110644F4FF2034
:1008100099F06F0D711D6817790774F40AC0012BE8
:1008200059F01C91112341F0611B7109861797073C
:100830001CF4CB0101C0888180838081882399F0DA
:10084000E901688189819A81EC01611105C06881A3
:10085000EA017881672B05C07881EA01688160959B
:100860006723EC0168833996475F5F4F275F3F4FEF
:10087000D9E0CD0ED11C199682E0E03DF80709F0D1
:10088000B2CF9ECFED012197288127FD16C0209180
:100890000C01EC013881321310C02C911196CD91CE
:1008A000DC911297211105C03881208120952323E6
:1008B00003C028813081232B288309963996199605
:1008C000D2E0EE3CFD07F1F6FF91EF91DF91CF9181
:1008D000BF91AF919F918F917F916F915F914F9158
:1008E0003F912F911F910F91FF90DF90CF900F902C
:1008F0000FBE0F901F901895CF93DF9391E097BB99
:1009000092E09093B1009093B00021E42093B30063
:1009100090937000E7E1F2E0AEE1B2E09FEFEF010B
:1009200021979883108212821182ED0121971882FB
:100930001C923996199622E0EB3CF20781F78093DE
:10094000CA02DF91CF9108951F93CF93DF93182FA1
:10095000442329F01092B2008FEF80930C01E6E15E
:10096000F2E0ABE1B2E090E08FEF208117FF05C02D
:1009700027FF05C08F3F51F406C02113FBCF6C93B6
:1009800017FDF8CF55C0208127FD892F9F5F39962D
:100990001996943151F717FD4BC08F3F09F448C0A9
:1009A000282F332727FD309599E08902F001112483
:1009B000EA5EFD4F10838091CA028183412F552743
:1009C00047FD5095FA01E057FF4FE491F0E0EE0F3C
:1009D000FF1FEC55FF4FC591D49199E0929FD00134
:1009E000939FB00D1124AA5EBD4F1396DC93CE9356
:1009F0001297FA01E458FF4F4491929FD001939FC0
:100A0000B00D1124AA5EBD4F14964C931497159601
:100A10006C93811102C060E001C061E0812F0E94EF
:100A20002E0661E0812FDF91CF911F910C94F50587
:100A3000DF91CF911F9108952F923F924F925F9235
:100A40006F927F928F929F92AF92BF92CF92DF92DE
:100A5000EF92FF920F931F93CF93DF9300D000D0BC
:100A60001F92CDB7DEB789831B015B834A8386E182
:100A700092E09D838C830EE112E04A01A12CB12CFF
:100A800020EFC22E2FE0D22EE12CF12C2B01612C75
:100A9000712C9981EC81FD81808197FF0DC087FFCA
:100AA0000EC08C819D8109969D838C83075F1F4FAB
:100AB0008A5C924071F722C0F9818F13F2CF211422
:100AC000310439F0C701B601A30192010E941E084A
:100AD00001C020E0F801319720838A819B81892B16
:100AE00039F0C701B601A50194010E941E0801C09A
:100AF00020E0F8012083F981F7FDD3CF0F900F900C
:100B00000F900F900F90DF91CF911F910F91FF9059
:100B1000EF90DF90CF90BF90AF909F908F907F909D
:100B20006F905F904F903F902F900895CF93CFB7E5
:100B3000F8948091CB02811127C0EAE9F0E084911A
:100B4000E6E8F0E09491E82FF0E0EE0FFF1FE255A9
:100B5000FF4FA591B4918C91892321F461E08AE043
:100B60000E942E0661E08AE00E94F5058CB5806146
:100B70008CBD8CB580648CBD61E08DE00E94F50574
:100B800061E08BE00E94F5058091CB028F5F80933E
:100B9000CB02CFBFCF910895833081F028F481300C
:100BA00099F08230A1F008958730A9F08830B9F02B
:100BB0008430D1F4809180008F7D03C080918000CB
:100BC0008F7780938000089584B58F7702C084B5B5
:100BD0008F7D84BD08958091B0008F7703C0809190
:100BE000B0008F7D8093B0000895CF93DF9390E0A5
:100BF000FC01E458FF4F2491FC01E057FF4F849122
:100C0000882349F190E0880F991FFC01E255FF4FBE
:100C1000A591B4918C559F4FFC01C591D4919FB77C
:100C2000611108C0F8948C91209582238C9388815F
:100C300082230AC0623051F4F8948C91322F30959F
:100C400083238C938881822B888304C0F8948C91B1
:100C5000822B8C939FBFDF91CF9108950F931F93A9
:100C6000CF93DF931F92CDB7DEB7282F30E0F90185
:100C7000E859FF4F8491F901E458FF4F1491F901AD
:100C8000E057FF4F04910023C9F0882321F06983C6
:100C90000E94CC056981E02FF0E0EE0FFF1FEC55BC
:100CA000FF4FA591B4919FB7F8948C91611103C047
:100CB0001095812301C0812B8C939FBF0F90DF91F2
:100CC000CF911F910F9108951F93CF93DF93182F0A
:100CD000EB0161E00E94F505209711F460E004C08B
:100CE000CF3FD10539F461E0812FDF91CF911F9182
:100CF0000C942E06E12FF0E0E859FF4FE491E33029
:100D0000F9F048F4E130B9F0E230A1F584B5806241
:100D100084BDC8BD34C0E730E9F0E83019F1E430F3
:100D200049F580918000806280938000D0938B0091
:100D3000C0938A0024C084B5806884BDC7BD1FC02D
:100D400080918000806880938000D0938900C09358
:100D5000880015C08091B00080688093B000C09377
:100D6000B3000DC08091B00080628093B000C0934A
:100D7000B40005C0C038D1050CF0B5CFAFCFDF91BE
:100D8000CF911F9108951F920F920FB60F921124C9
:100D90002F933F938F939F93AF93BF938091CD02F7
:100DA0009091CE02A091CF02B091D0023091CC02AE
:100DB00026E0230F2D3720F40296A11DB11D05C09A
:100DC00029E8230F0396A11DB11D2093CC02809327
:100DD000CD029093CE02A093CF02B093D002809127
:100DE000D1029091D202A091D302B091D402019687
:100DF000A11DB11D8093D1029093D202A093D30282
:100E0000B093D402BF91AF919F918F913F912F9159
:100E10000F900FBE0F901F9018953FB7F8948091D8
:100E2000D1029091D202A091D302B091D40226B502
:100E3000A89B05C02F3F19F00196A11DB11D3FBF12
:100E40006627782F892F9A2F620F711D811D911DA2
:100E500043E0660F771F881F991F4A95D1F70895C1
:100E6000CF92DF92EF92FF92CF93DF936B017C01E1
:100E70000E940D07EB01C114D104E104F10489F0D3
:100E80000E941D080E940D076C1B7D0B683E73407D
:100E900090F381E0C81AD108E108F108C851DC4F8D
:100EA000EACFDF91CF91FF90EF90DF90CF90089540
:100EB000789484B5826084BD84B5816084BD85B535
:100EC000826085BD85B5816085BDEEE6F0E08081FC
:100ED00081608083E1E8F0E010828081826080831D
:100EE000808181608083E0E8F0E0808181608083A0
:100EF000E1EBF0E0808184608083E0EBF0E08081D2
:100F000081608083EAE7F0E0808184608083808173
:100F10008260808380818E7F8083808180688083EF
:100F20001092C10008958230E8F4E82FF0E0EE0F4F
:100F3000FF1FEB52FD4F71836083813041F0809140
:100F400069008C7F842B80936900E89A08958091D2
:100F50006900440F551F440F551F837F842B8093D6
:100F60006900E99A08951F920F920FB60F9211240B
:100F70002F933F934F935F936F937F938F939F93A1
:100F8000AF93BF93EF93FF938091D5029091D602D8
:100F9000892B29F0E091D502F091D6020995FF91B5
:100FA000EF91BF91AF919F918F917F916F915F91E1
:100FB0004F913F912F910F900FBE0F901F9018955A
:100FC0001F920F920FB60F9211242F933F934F93BE
:100FD0005F936F937F938F939F93AF93BF93EF93A1
:100FE000FF938091D7029091D802892B29F0E0914C
:100FF000D702F091D8020995FF91EF91BF91AF917F
:101000009F918F917F916F915F914F913F912F9120
:101010000F900FBE0F901F90189508950E945807CB
:101020000E940D080E94F202C0E0D0E00E94D102AE
:101030002097E1F30E940000F9CF0895A1E21A2E53
:10104000AA1BBB1BFD010DC0AA1FBB1FEE1FFF1F6C
:10105000A217B307E407F50720F0A21BB30BE40BBC
:10106000F50B661F771F881F991F1A9469F7609503
:101070007095809590959B01AC01BD01CF010895BD
:10108000EE0FFF1F0590F491E02D0994F894FFCF27
:0E109000020008000600050004000300FF0037
:00000001FF
