:100000000C945E000C9441080C946E080C948600CD
:100010000C9486000C9486000C9486000C944F047B
:100020000C9486000C9486000C9486000C94860038
:100030000C9486000C9486000C9486000C94860028
:100040000C9451070C9486000C9486000C94860046
:100050000C9486000C9486000C9486000C94860008
:100060000C9486000C948600000000080002010039
:100070000003040700000000000000000102040863
:100080001020408001020408102001020408102002
:10009000040404040404040402020202020203032E
:1000A0000303030300000000250028002B000000CC
:1000B0000000240027002A00FB01480411241FBE71
:1000C000CFEFD8E0DEBFCDBF11E0A0E0B1E0ECEAB9
:1000D000F1E102C005900D92AE30B107D9F722E0F0
:1000E000AEE0B1E001C01D92A73DB207E1F710E01C
:1000F000CCEBD0E004C02297FE010E94D008C83BA0
:10010000D107C9F70E949C080C94D4080C940000F5
:1001100008958EE091E00C94A8031F93CF93DF9392
:10012000162FEA0140E0682F80910A010E943205F3
:1001300040E0612F809108010E943205BE0180914C
:100140000601DF91CF911F910C94F2060F931F933C
:10015000CF93DF9317B880E00E940A050AE011E010
:1001600040E060E0F80180810E943205C8E0D1E003
:1001700040E060E088810E94320561E080910601E4
:100180000E94830644E650E064E670E0F801808156
:100190000E94AA0544E650E064E670E088810E946F
:1001A000AA0561E08EE00E94BC0661E08FE00E943B
:1001B000BC0661E080E10E94BC0661E081E10E9432
:1001C000BC0640E050E060E070E080E090E00E941B
:1001D0008D008EE091E00E9431028EE091E00E945D
:1001E00018036FED77E08EE091E00E94E4026CE08E
:1001F0008EE091E00E940A0362E072E48EE091E0FA
:100200000E94F50261E08EE091E00E948E0361E0C1
:100210008EE091E00E94990341E050E069E870E0CF
:1002200080E00E942108789486B190E080959095B6
:100230008F70992790931701809316019C01220FCC
:10024000331F280F391F3093150120931401DF91BC
:10025000CF911F910F9108958091160190911701F0
:100260000F9709F08CC040E050E060E070E08FEF45
:1002700090E00E948D006AEF70E080E090E00E94C4
:10028000BE0740E050E060E070E080E090E00E9457
:100290008D006DE270E080E090E00E94BE0740E0DB
:1002A00050E06FEF70E080E090E00E948D006AEF18
:1002B00070E080E090E00E94BE0740E050E060E027
:1002C00070E080E090E00E948D006DE270E080E0E0
:1002D00090E00E94BE074FEF50E060E070E080E0E9
:1002E00090E00E948D006AEF70E080E090E00E9454
:1002F000BE0740E050E060E070E080E090E00E94E7
:100300008D006DE270E080E090E00E94BE0740E06A
:1003100050E067ED70E08FEF90E00E948D006AEF93
:1003200070E080E090E00E94BE0740E050E060E0B6
:1003300070E080E090E00E948D0062E370E080E079
:1003400090E00E94BE0747ED50E06FEF70E08FEF46
:1003500090E00E948D006AEF70E080E090E00E94E3
:10036000BE0740E050E060E070E080E090E00E9476
:100370008D0062E370E080E090E00C94BE0748E8F6
:1003800050E067EC71E08EE091E00C9476030F93FF
:100390001F93CF93DF938EE091E00E949603E0914C
:1003A0001401F0911501E80FF91F038110E08EE0B0
:1003B00091E00E949603E0911401F0911501E80F7D
:1003C000F91FC281D0E08EE091E00E949603E09197
:1003D0001401F0911501E80FF91F8181A801BE01F8
:1003E00090E00E948D008EE091E0DF91CF911F910F
:1003F0000F910C949C0320910001309101014091D8
:1004000002015091030160910401709105018EE099
:1004100091E00C9412028EBD00000DB407FEFDCFDA
:100420008EB50895CF93DF93EC01862F688379838F
:100430005B834A833D832C8361E00E94830661E0F5
:100440008A810E94830660E08C810E9483068CB5BD
:100450008F7D8CBD8CB5837F8CBDDF91CF910C944B
:100460002406CF93DF93EC0160E088810E94BC06F4
:100470006AE070E080E090E00E94BE0761E0888161
:100480000E94BC0664E170E080E090E0DF91CF91D3
:100490000C94BE071F93CF93DF93EC01162F60E0FF
:1004A0008A810E94BC06812F880F8E770E940B02E2
:1004B00080E00E940B02182F61E08A810E94BC0636
:1004C000812FDF91CF911F9108950F931F93CF93A9
:1004D000DF938C01EB0160E0FC0182810E94BC068D
:1004E000CE0123E0969587952A95E1F780680E94D2
:1004F0000B028C2F8295880F807E0E940B0280E079
:100500000E940B02C82F61E0F80182810E94BC06A4
:100510008C2FDF91CF911F910F910895EF92FF9251
:100520001F93CF93DF931F92CDB7DEB77C01162FB9
:1005300060E0FC01828149830E94BC06812F880F04
:100540008E7781600E940B024981842F0E940B02EA
:1005500061E0F70182810F90DF91CF911F91FF90B1
:10056000EF900C94BC06EF92FF920F931F93CF93E2
:10057000DF931F92CDB7DEB78C017B0160E0FC01F9
:10058000828149830E94BC06C70133E09695879516
:100590003A95E1F780680E940B028E2D8295880FB4
:1005A000807E80610E940B024981842F0E940B0291
:1005B00061E0F80182810F90DF91CF911F910F913F
:1005C000FF90EF900C94BC061F93CF93DF93EC0148
:1005D000162F472F62E00E948E02412F61E0CE016C
:1005E000DF91CF911F910C948E021F93CF93DF93D5
:1005F000EC01162F472F64E00E948E02412F63E02A
:10060000CE01DF91CF911F910C948E0246EF62E3F1
:100610000C948E02462F50E04B50510964E0440F79
:10062000551F6A95E1F7436060E072E00C94B302F5
:10063000CF93DF93EC0148E968E10E948E0245E91F
:100640006EE2CE010E948E0243E060E072E0CE01D5
:100650000E94B30241E061E072E0CE010E94B30269
:1006600040E862E072E0CE010E94B30240E966E039
:1006700072E0CE010E94B30240E867E072E0CE0172
:100680000E94B30240E168E072E0CE010E94B30232
:1006900041E260E272E0CE010E94B30240E86AE308
:1006A000CE010E948E0240E66FE3CE010E948E02D0
:1006B00040E46EE3CE010E948E02CE010E9406034A
:1006C0006CE0CE010E940A0344E066E3CE010E9482
:1006D0008E0240E066E3CE010E948E0261E070E08F
:1006E00080E090E0DF91CF910C94BE07CF93DF9331
:1006F000EA0180919101882321F010929101FB0180
:10070000099580919001882331F010929001FE01AB
:10071000DF91CF910994DF91CF910895662311F075
:1007200041E001C040E060E00C948E0289E191E07C
:10073000089560939201089541E06DE00C948E025B
:1007400044E069E30C948E0240E069E30C948E026D
:10075000AF92BF92CF92DF92EF92FF920F931F93CF
:10076000CF93DF93EC0161E30E944A02B82E83FF2E
:1007700061C0809191018F5F80939101F894CE01C7
:100780000E94A00360E073E0CE010E946502A82EE3
:1007900080919201882349F0F5E9EF2EF1E0FF2ED8
:1007A00000E010E0CA2CD12C07C0EAE1EE2EE1E017
:1007B000FE2E00E010E00EC00C151D05B4F70F5F13
:1007C0001F4FB8017D5FCE010E946502F701819342
:1007D0007F01F2CF2091190130E0409193015091B7
:1007E0009401241B350B0217130764F40F5F1F4F8E
:1007F000B801675F7C4FCE010E946502F7018193CB
:100800007F01E8CFA09219010A2D10E0B8016F5FB7
:100810007C4FCE010E94650280938E01B8016E5F0D
:100820007C4FCE010E94650280938F01CE010E9411
:10083000A4037894B0FE21C0809190018F5F8093D3
:10084000900164E2CE010E944A0290E09C012E7F5A
:1008500041E0232B09F040E02091180140FB20F9F2
:1008600076E0959587957A95E1F78370880F922FBA
:10087000997F982B977F90931801DF91CF911F91CB
:100880000F91FF90EF90DF90CF90BF90AF900895C1
:100890008BE090E0909394018093930108951F92D0
:1008A0000F920FB60F921124CF92DF92FF920F9307
:1008B0001F932F933F934F935F936F937F938F93E8
:1008C0009F93AF93BF93CF93DF93EF93FF93809169
:1008D0000C018F5F80930C01882339F08AE192E04C
:1008E000E8E1F2E0A5E1B2E05BC0EAE1F2E048E174
:1008F00052E025E132E089E1C82E82E0D82EACE159
:10090000B2E0CD010197EC01F880E601F11003C0DF
:100910008C918823F1F0888190E0608170E08C01F7
:10092000061B170B1016110644F4FF2099F06F0DEB
:10093000711D6817790774F40AC0012B59F01C91D6
:10094000112341F0611B7109861797071CF4CB0135
:1009500001C0888180838081882399F0E9016881C2
:1009600089819A81EC01611105C06881EA01788171
:10097000672B05C07881EA01688160956723EC01E7
:1009800068833996475F5F4F275F3F4FD9E0CD0EB1
:10099000D11C199682E0EE3CF80709F0B2CF9ECF49
:1009A000ED012197288127FD16C020910C01EC0153
:1009B0003881321310C02C911196CD91DC91129791
:1009C000211105C0388120812095232303C028816F
:1009D0003081232B2883099639961996D2E0EC3C76
:1009E000FD07F1F6FF91EF91DF91CF91BF91AF91AC
:1009F0009F918F917F916F915F914F913F912F9137
:100A00001F910F91FF90DF90CF900F900FBE0F902E
:100A10001F901895CF93DF9391E097BB92E090934E
:100A2000B1009093B00021E42093B3009093700044
:100A3000E5E1F2E0ACE1B2E09FEFEF0121979883AE
:100A4000108212821182ED01219718821C92399630
:100A5000199622E0E93CF20781F78093C802DF9102
:100A6000CF9108951F93CF93DF93182F442329F03C
:100A70001092B2008FEF80930C01E4E1F2E0A9E163
:100A8000B2E090E08FEF208117FF05C027FF05C07F
:100A90008F3F51F406C02113FBCF6C9317FDF8CFA5
:100AA00055C0208127FD892F9F5F39961996943173
:100AB00051F717FD4BC08F3F09F448C0282F33274B
:100AC00027FD309599E08902F0011124EC5EFD4F7D
:100AD00010838091C8028183412F552747FD50958F
:100AE000FA01E057FF4FE491F0E0EE0FFF1FEC55E5
:100AF000FF4FC591D49199E0929FD001939FB00D83
:100B00001124AC5EBD4F1396DC93CE931297FA017D
:100B1000E458FF4F4491929FD001939FB00D112450
:100B2000AC5EBD4F14964C93149715966C9381113F
:100B300002C060E001C061E0812F0E94BC0661E05C
:100B4000812FDF91CF911F910C948306DF91CF917C
:100B50001F9108952F923F924F925F926F927F92D2
:100B60008F929F92AF92BF92CF92DF92EF92FF92BD
:100B70000F931F93CF93DF9300D000D01F92CDB778
:100B8000DEB789831B015B834A8384E192E09D8306
:100B90008C830CE112E04A01A12CB12C20EFC22E73
:100BA0002FE0D22EE12CF12C2B01612C712C99819C
:100BB000EC81FD81808197FF0DC087FF0EC08C8185
:100BC0009D8109969D838C83075F1F4F885C9240AF
:100BD00071F722C0F9818F13F2CF2114310439F05B
:100BE000C701B601A30192010E94AC0801C020E038
:100BF000F801319720838A819B81892B39F0C701C5
:100C0000B601A50194010E94AC0801C020E0F801E2
:100C10002083F981F7FDD3CF0F900F900F900F90A5
:100C20000F90DF91CF911F910F91FF90EF90DF9088
:100C3000CF90BF90AF909F908F907F906F905F907C
:100C40004F903F902F900895CF93CFB7F894809115
:100C5000C902811127C0EAE9F0E08491E6E8F0E0FA
:100C60009491E82FF0E0EE0FFF1FE255FF4FA591A2
:100C7000B4918C91892321F461E08AE00E94BC0642
:100C800061E08AE00E9483068CB580618CBD8CB5E2
:100C900080648CBD61E08DE00E94830661E08BE0A2
:100CA0000E9483068091C9028F5F8093C902CFBFE3
:100CB000CF910895833081F028F4813099F082300B
:100CC000A1F008958730A9F08830B9F08430D1F4CC
:100CD000809180008F7D03C0809180008F7780930A
:100CE0008000089584B58F7702C084B58F7D84BD60
:100CF00008958091B0008F7703C08091B0008F7D00
:100D00008093B0000895CF93DF9390E0FC01E45806
:100D1000FF4F2491FC01E057FF4F8491882349F154
:100D200090E0880F991FFC01E255FF4FA591B49107
:100D30008C559F4FFC01C591D4919FB7611108C09C
:100D4000F8948C91209582238C93888182230AC009
:100D5000623051F4F8948C91322F309583238C9328
:100D60008881822B888304C0F8948C91822B8C9389
:100D70009FBFDF91CF9108950F931F93CF93DF9380
:100D80001F92CDB7DEB7282F30E0F901E859FF4FA9
:100D90008491F901E458FF4F1491F901E057FF4F96
:100DA00004910023C9F0882321F069830E945A0628
:100DB0006981E02FF0E0EE0FFF1FEC55FF4FA5918A
:100DC000B4919FB7F8948C91611103C01095812361
:100DD00001C0812B8C939FBF0F90DF91CF911F910A
:100DE0000F9108951F93CF93DF93182FEB0161E0CC
:100DF0000E948306209711F460E004C0CF3FD10524
:100E000039F461E0812FDF91CF911F910C94BC06E2
:100E1000E12FF0E0E859FF4FE491E330F9F048F4B6
:100E2000E130B9F0E230A1F584B5806284BDC8BD7F
:100E300034C0E730E9F0E83019F1E43049F5809149
:100E40008000806280938000D0938B00C0938A00E2
:100E500024C084B5806884BDC7BD1FC08091800058
:100E6000806880938000D0938900C093880015C06B
:100E70008091B00080688093B000C093B3000DC033
:100E80008091B00080628093B000C093B40005C030
:100E9000C038D1050CF0B5CFAFCFDF91CF911F9106
:100EA00008951F920F920FB60F9211242F933F9324
:100EB0008F939F93AF93BF938091CB029091CC027D
:100EC000A091CD02B091CE023091CA0226E0230F4C
:100ED0002D3720F40296A11DB11D05C029E8230F6E
:100EE0000396A11DB11D2093CA028093CB0290935B
:100EF000CC02A093CD02B093CE028091CF0290910C
:100F0000D002A091D102B091D2020196A11DB11DD3
:100F10008093CF029093D002A093D102B093D202DB
:100F2000BF91AF919F918F913F912F910F900FBEE5
:100F30000F901F9018953FB7F8948091CF02909131
:100F4000D002A091D102B091D20226B5A89B05C0D3
:100F50002F3F19F00196A11DB11D3FBF6627782FC5
:100F6000892F9A2F620F711D811D911D43E0660F1D
:100F7000771F881F991F4A95D1F70895CF92DF9266
:100F8000EF92FF92CF93DF936B017C010E949B074E
:100F9000EB01C114D104E104F10489F00E94AB0813
:100FA0000E949B076C1B7D0B683E734090F381E0B1
:100FB000C81AD108E108F108C851DC4FEACFDF9127
:100FC000CF91FF90EF90DF90CF900895789484B503
:100FD000826084BD84B5816084BD85B5826085BD35
:100FE00085B5816085BDEEE6F0E08081816080831B
:100FF000E1E8F0E0108280818260808380818160FE
:101000008083E0E8F0E0808181608083E1EBF0E0C4
:10101000808184608083E0EBF0E080818160808368
:10102000EAE7F0E080818460808380818260808351
:1010300080818E7F80838081806880831092C10050
:1010400008958230E8F4E82FF0E0EE0FFF1FED5234
:10105000FD4F71836083813041F0809169008C7F06
:10106000842B80936900E89A089580916900440F69
:10107000551F440F551F837F842B80936900E99A85
:1010800008951F920F920FB60F9211242F933F9342
:101090004F935F936F937F938F939F93AF93BF9380
:1010A000EF93FF938091D3029091D402892B29F082
:1010B000E091D302F091D4020995FF91EF91BF9195
:1010C000AF919F918F917F916F915F914F913F91E0
:1010D0002F910F900FBE0F901F9018951F920F9297
:1010E0000FB60F9211242F933F934F935F936F93FB
:1010F0007F938F939F93AF93BF93EF93FF938091D1
:10110000D5029091D602892B29F0E091D502F09179
:10111000D6020995FF91EF91BF91AF919F918F9169
:101120007F916F915F914F913F912F910F900FBEE3
:101130000F901F90189508950E94E6070E949B0843
:101140000E94A600C0E0D0E00E942C012097E1F3AD
:101150000E940000F9CF0895A1E21A2EAA1BBB1B22
:10116000FD010DC0AA1FBB1FEE1FFF1FA217B30773
:10117000E407F50720F0A21BB30BE40BF50B661F89
:10118000771F881F991F1A9469F76095709580954D
:1011900090959B01AC01BD01CF010895EE0FFF1F9B
:0C11A0000590F491E02D0994F894FFCF25
:0E11AC00020008000600050004000300FF001A
:00000001FF
