:100000000C945D000C941B030C94F4020C9485007A
:100010000C9485000C9485000C9485000C9442038C
:100020000C9485000C9485000C9485000C9485003C
:100030000C9485000C9485000C9485000C9485002C
:100040000C94AA020C9485000C9485000C948500F5
:100050000C9485000C9485000C9485000C9485000C
:100060000C9485000C94850000000008000201003B
:100070000003040700000000000000000000000072
:10008000250028002B0000000000240027002A0083
:10009000010204081020408001020408102001021F
:1000A00004081020040404040404040402020202EC
:1000B0000202030303030303C10311241FBECFEF96
:1000C000D8E0DEBFCDBF11E0A0E0B1E0E8E0FCE0A9
:1000D00002C005900D92A630B107D9F722E0A6E044
:1000E000B1E001C01D92AB34B207E1F710E0CDE5FD
:1000F000D0E004C02197FE010E94FC05CC35D10759
:10010000C9F70E9423040C9402060C940000EEE848
:10011000F1E098E9208187FF08C027FF08C03996E1
:1001200022E0E234F207B1F708958213F8CF978303
:10013000908787FDF4CF089590E0FC01E859FF4FC8
:100140002491FC01E057FF4F3491FC01EC55FF4F27
:10015000E491EE23C9F0222339F0233001F1A8F411
:10016000213019F1223029F1F0E0EE0FFF1FE458A1
:10017000FF4FA591B4918FB7F894EC91611126C00F
:1001800030953E233C938FBF08952730A9F0283047
:10019000C9F0243049F7809180008F7D03C08091A1
:1001A00080008F7780938000DFCF84B58F7784BD08
:1001B000DBCF84B58F7DFBCF8091B0008F778093AC
:1001C000B000D2CF8091B0008F7DF9CF3E2BDACF37
:1001D000CF93DF9390E0FC01E057FF4F24918C55C3
:1001E0009F4FFC0184918823D1F090E0880F991FE4
:1001F000FC01EA57FF4FA591B491FC01E458FF4F71
:10020000C591D49161110EC09FB7F8948C91E22FE3
:10021000E0958E238C932881E223E8839FBFDF91B2
:10022000CF9108958FB7F894EC91E22BEC938FBFA8
:10023000F6CFCF93EEE8F1E0AFEF90E0208187FFBB
:1002400005C027FF47C0AF3F41F406C0821709F43D
:1002500041C0AF3F11F427FDA92F9F5F399694311C
:1002600069F787FD3AC0AF3F09F437C0C82F89E06E
:10027000A802D0011124A257BE4FCC9320918D012A
:1002800011962C9311978C2F0C2E000C990BFC01BE
:10029000EC55FF4FE491F0E0EE0FFF1FE458FF4FE5
:1002A0004591549113965C934E931297FC01E0573D
:1002B000FF4FE4911496EC93149715966C9360E0BD
:1002C000211161E08C2F0E949C0061E08C2FCF9166
:1002D0000C94E800658387FDBCCFCF9108953FB7AC
:1002E000F8948091890190918A01A0918B01B0913D
:1002F0008C0126B5A89B05C02F3F19F00196A11DC2
:10030000B11D3FBFBA2FA92F982F8827BC01CD015F
:10031000620F711D811D911D42E0660F771F881FBE
:10032000991F4A95D1F708958F929F92AF92BF92ED
:10033000CF92DF92EF92FF924B015C010E946F011E
:100340006B017C010E946F016C197D098E099F0968
:10035000683E734081059105A8F321E0821A910857
:10036000A108B10888EEC80E83E0D81EE11CF11C7C
:1003700081149104A104B10429F7FF90EF90DF905C
:10038000CF90BF90AF909F908F90089581E090E0C4
:100390009093830180938201089508951F93CF93D2
:1003A000DF93162FEA01682F83E00E941901612F65
:1003B00084E00E94190161E085E00E94E800209736
:1003C00039F460E085E0DF91CF911F910C949C009F
:1003D000CF3FD10511F461E0F5CFEDE6F0E0E49117
:1003E000E33031F140F4E130B1F0E230E1F0C03817
:1003F000D1058CF7E6CFE73029F1E83059F1E43048
:10040000B1F780918000806280938000D0938B0050
:10041000C0938A0004C084B5806884BDC7BDDF91E5
:10042000CF911F91089584B5806284BDC8BDF7CF78
:1004300080918000806880938000D0938900C09371
:100440008800EDCF8091B00080688093B000C093A9
:10045000B300E5CF8091B00080628093B000C0937C
:10046000B400DDCF8EBD00000DB407FEFDCF8EB50C
:1004700008950F931F93CF93DF938C01C3E4D2E0D1
:1004800060E08A810E949C00C80123E096958795D0
:100490002A95E1F780680E943202802F8295880FAA
:1004A000807E0E94320280E00E943202182F61E0BA
:1004B0008A810E949C00812FDF91CF911F910F9123
:1004C00008950F931F93CF93DF93C82FD62F03E484
:1004D00012E060E0F80182810E949C008C2F880F5E
:1004E00081600E9432028D2F0E94320261E0F80189
:1004F0008281DF91CF911F910F910C949C00FF920C
:100500000F931F93CF93DF93EC01F62E03E412E0D9
:1005100060E0F80182810E949C00CE0123E0969564
:1005200087952A95E1F780680E9432028C2F829588
:10053000880F807E80610E9432028F2D0E943202DD
:1005400061E0F8018281DF91CF911F910F91FF90BF
:100550000C949C001F920F920FB60F9211242F93B0
:100560003F938F939F93AF93BF9380918501909119
:100570008601A0918701B09188013091840123E028
:10058000230F2D3758F50196A11DB11D209384012D
:100590008093850190938601A0938701B093880191
:1005A0008091890190918A01A0918B01B0918C0179
:1005B0000196A11DB11D8093890190938A01A0939A
:1005C0008B01B0938C01BF91AF919F918F913F911F
:1005D0002F910F900FBE0F901F90189526E8230FB4
:1005E0000296A11DB11DD2CF1F920F920FB60F928E
:1005F00011242F933F934F935F936F937F938F9328
:100600009F93AF93BF93EF93FF93E0910201F0911B
:1006100003010995FF91EF91BF91AF919F918F9148
:100620007F916F915F914F913F912F910F900FBEEE
:100630000F901F9018951F920F920FB60F921124D2
:100640002F933F934F935F936F937F938F939F93DA
:10065000AF93BF93EF93FF93E0910001F0910101FD
:100660000995FF91EF91BF91AF919F918F917F91EC
:100670006F915F914F913F912F910F900FBE0F900F
:100680001F9018951F920F920FB60F9211242F935F
:100690003F934F936F937F938F939F93AF93BF93AA
:1006A000EF93FF93809104018F5F80930401811188
:1006B00038C0EEE8F1E047818581411103C09085A3
:1006C0009923E9F090E03681232F30E0BC01621BD2
:1006D000730B161617064CF4442389F0240F311DB2
:1006E0002817390764F4C9010AC0672B41F0408517
:1006F000442329F0241B310982179307A4F386832E
:100700008681882349F09181A281B38184819111EE
:1007100031C09C91892B8C93399682E0E234F807A2
:1007200051F6EEE8F1E0808187FD0FC08091040171
:10073000968198130AC0A281B3818481918191111D
:100740001DC09C91809589238C93399682E0E23478
:10075000F80749F7FF91EF91BF91AF919F918F916A
:100760007F916F914F913F912F910F900FBE0F90FE
:100770001F9018959C9180958923CDCF9C91892BB2
:10078000E3CFCF9386E090E09093440280934302BE
:1007900088E090E0909346028093450282E090E0EA
:1007A000909348028093470261E086E00E94E8004F
:1007B00061E0809145020E94E80060E0809147027C
:1007C0000E94E8008CB58F7D8CBD8CB5837F8CBD7D
:1007D000CFB7F89480914202811127C0EEEAF0E091
:1007E0008491EAE9F0E09491E82FF0E0EE0FFF1F2A
:1007F000EA57FF4FA591B491EC91E92321F461E010
:100800008AE00E949C0061E08AE00E94E8008CB5CA
:1008100080618CBD8CB580648CBD61E08DE00E94F0
:10082000E80061E08BE00E94E800809142028F5F67
:1008300080934202CFBF8BE090E090934A02809376
:100840004902CF910895789484B5826084BD84B5BF
:10085000816084BD85B5826085BD85B5816085BDBB
:1008600080916E00816080936E0010928100809173
:1008700081008260809381008091810081608093FB
:100880008100809180008160809380008091B10020
:1008900084608093B1008091B00081608093B0004B
:1008A00080917A00846080937A0080917A008260DF
:1008B00080937A0080917A00816080937A008091A1
:1008C0007A00806880937A001092C10017B881E0A6
:1008D00087BB82E08093B1008093B00092E8909350
:1008E000B30080937000EEE8F1E08FEF8083118217
:1008F0001382128217821086399622E0E234F207C0
:10090000A9F710928D0160E083E00E94190160E078
:1009100084E00E94190161E085E00E94E80083E024
:100920000E94870084E00E94870061E08EE00E94C0
:100930009C0061E08FE00E949C0061E080E10E94E9
:100940009C0061E081E10E949C0050E040E070E08A
:1009500060E090E080E00E94CE0160E08091430280
:100960000E949C006AE070E080E090E00E949401A8
:1009700061E0809143020E949C0064E170E080E0AD
:1009800090E00E94940168E988E10E94610265E9B3
:100990008EE20E94610263E080E092E00E947F02AA
:1009A00061E081E092E00E947F0260E882E092E0F4
:1009B0000E947F0260E986E092E00E947F0260E888
:1009C00087E092E00E947F0260E188E092E00E946E
:1009D0007F0261E280E292E00E947F0260E88AE3A7
:1009E0000E94610260E68FE30E94610260E48EE390
:1009F0000E94610266EF82E30E94610263E180E08F
:100A000092E00E947F0264E086E30E94610260E05F
:100A100086E30E94610261E070E080E090E00E9465
:100A2000940167E082E00E9461026FED81E00E9424
:100A3000610263E180E092E00E947F0262E484E070
:100A40000E94610262E083E00E94610261E080E056
:100A50000E94610281E08093060186EC91E0909310
:100A6000010180930001809169008C7F81608093F7
:100A70006900E89A789486B190E0809590958F709F
:100A800099279C01220F331F820F931F90937F01A0
:100A900080937E0100E010E08091820190918301BB
:100AA000892B09F485C060E0809145020E949C007A
:100AB00082E60E94320280E00E943202B82E61E09B
:100AC000809145020E949C00B3FE57C08091810135
:100AD0008F5F8093810164E089E30E94610280E07E
:100AE00093E00E943902C82F80910601811120C035
:100AF00087E0C82E81E0D82EF12CE12CFFEFCF1A31
:100B0000DF0A8091070190E02091490230914A026A
:100B1000821B930BE816F906DCF4C701865F9C4F35
:100B20002FEFE21AF20A0E943902F6018083E6CF23
:100B3000F12CE12CCC2ED12CEC14FD04CCF6C70109
:100B40008F5F9C4FEFEFEE1AFE0A0E943902F4CF3E
:100B5000C0930701D0E0CE018F5F9C4F0E94390205
:100B600080937C01CE018E5F9C4F0E94390280935E
:100B70007D0160E089E30E946102B0FE15C08091B2
:100B800080018F5F8093800160E0809145020E9428
:100B90009C0088E40E94320280E00E94320261E000
:100BA000809145020E949C00109283011092820164
:100BB000809181018823A1F010928101E0917E0152
:100BC000F0917F01E95FFE4F438150E0628170E068
:100BD000818190E00E94CE0161E08DE00E9461027F
:100BE000809180018111109280010115110509F495
:100BF00053CF0E94000050CFEE0FFF1F0590F491DD
:080C0000E02D0994F894FFCFE8
:060C0800CD01CD01FF004B
:00000001FF
