:100000000C94CD000C940E090C94E7080C94C008D5
:100010000C9499080C94F5000C94F5000C9472085B
:100020000C94F5000C94F5000C9487050C94F605DF
:100030000C94F5000C94F5000C94F5000C94F5006C
:100040000C94F5000C94F5000C94F5000C94F5005C
:100050000C94F5000C94F5000C94F5000C94280811
:100060000C94F5000C94F5000C94F5000C94F5003C
:100070000C94F5000C94F5000C94F5000C94F5002C
:100080000C94F5000C94F5000C94F5000C94F5001C
:100090000C94F5000C94F5000C9435090C94F500C3
:1000A0000C94F5000C94F5000C94F500000000028F
:1000B00000090F0000030401000C00000000000014
:1000C0000000000000000000000000080B00020219
:1000D00002000009040000010202000005240010D3
:1000E000010524010101042402060524060001077C
:1000F00005810310004009040100020A0000000706
:1001000005020240000007058302400000040309C5
:100110000412010002EF0201404123378000010177
:1001200002030141726475696E6F204C4C430041BB
:10013000726475696E6F204D6963726F0000000014
:1001400000250028002B002E0031000000000024B4
:100150000027002A002D0030000408020110408012
:10016000401020408040800802040180402010029E
:1001700001108010204040200404040404030405FE
:100180000202020204030202020206060606060634
:100190000404020202040400E70911241FBECFEF89
:1001A000DAE0DEBFCDBF11E0A0E0B1E0E6E2F9E1C8
:1001B00002C005900D92A033B107D9F722E0A0E369
:1001C000B1E001C01D92AB3DB207E1F710E0CDEC0C
:1001D000D0E004C02197FE010E948B0CCC3CD107DB
:1001E000C9F70E94650A0C94910C0C940000EEEC87
:1001F000F1E098E9208187FF08C027FF08C0399601
:1002000022E0E238F207B1F708958213F8CF97831E
:10021000908787FDF4CF0895FC018091CC0188235D
:1002200011F13FB7F89482E08093E9002091F20049
:10023000822F90E01816190614F481E090E08823CC
:1002400039F0289A44E64093CB014091F100408375
:10025000222339F02091F200211103C02BE62093D4
:10026000E8003FBF08958FEF9FEF08952FB7F894F0
:1002700083E08093E9009091E800892F807295FFD8
:1002800004C09091F20080E4891B2FBF08958091F3
:10029000C30181110DC082E08093BF0184E080938F
:1002A000C0011092C2011092C10181E08093C3018C
:1002B0008FEB91E00895CF93DF931F92CDB7DEB718
:1002C0006983DC01ED91FC910280F381E02D41E036
:1002D00050E0BE016F5F7F4F09950F90DF91CF9186
:1002E000089583E08093E9008091F200882319F05B
:1002F0008AE38093E80008950E94360190E0089513
:10030000CF93DF931F92CDB7DEB7FC01848595852F
:1003100097FD08C02FEF3FEF358724870F90DF91BF
:10032000CF910895CE0101960E940C01019719F416
:10033000898190E0F3CF8FEF9FEFF0CF0F931F9362
:10034000CF93DF931F92CDB7DEB78C01FC0184857C
:10035000958597FF0BC0CE0101960E940C01019775
:1003600071F4898190E0F80195878487F80184858C
:1003700095850F90DF91CF911F910F9108958FEF89
:100380009FEFF1CFFC018485958597FD0BC09FB74A
:10039000F89482E08093E9008091F2009FBF90E0A2
:1003A000019608959FB7F89482E08093E9008091C8
:1003B000F2009FBF90E008954091B9015091BA01B9
:1003C0002091B7013091B80142175307B4F49091CE
:1003D000E8009570E1F39091E80092FD19C08093D8
:1003E000F1008091B9019091BA0101968F7399271C
:1003F000892B19F48EEF8093E8008091B9019091D8
:10040000BA0101969093BA018093B90181E00895F1
:1004100080E00895DF92EF92FF920F931F93CF93A6
:10042000DF93D82E8A01EB017B01E40EF51ECE1579
:10043000DF0559F0D7FE12C0FE0184910E94DC0155
:1004400021968111F4CF0FEF1FEFC801DF91CF91FB
:100450001F910F91FF90EF90DF9008958881EECF6C
:100460000F931F93CF93DF931F92CDB7DEB782E038
:10047000898342E450E06BEC70E080E80E940A025D
:100480000E944701DC0112960D911C910115110586
:1004900089F0D801ED91FC910280F381E02DBE013D
:1004A0006F5F7F4FC801099597FD04C0F801008573
:1004B0001185ECCF89810F90DF91CF911F910F9122
:1004C0000895615030F02091F100FC0120830196E5
:1004D000F8CF289A84E68093CB010895282F30E046
:1004E000F901E455FF4F9491F901E75AFE4F8491C9
:1004F00028583E4FF9012491222309F430C0992352
:10050000E9F091509F30D0F4E92FF0E0E657FD4F2D
:100510000C948B0CB802BC029902B002B4029E0289
:100520009E029E02BF02C502C902CD02D3029E02F4
:10053000D702909180009F7790938000E22FF0E0A7
:10054000EE0FFF1FE35CFE4FA591B4919FB7F894A7
:10055000EC91611132C080958E238C939FBF0895DA
:10056000909180009F7DE8CF90918000977FE4CFAD
:1005700094B59F7794BDE2CF94B59F7DFBCF9091CA
:1005800090009F7790939000D9CF909190009F7D9D
:10059000F9CF90919000977FF5CF9091C0009F7711
:1005A0009093C000CBCF9091C0009F7DF9CF9091E8
:1005B000C200977F9093C200C1CF8E2BCECFCF9336
:1005C000DF9390E0FC01E75AFE4F249188589E4F3C
:1005D000FC0184918823D1F090E0880F991FFC01E1
:1005E000E55BFE4FA591B491FC01E35CFE4FC59124
:1005F000D49161110EC09FB7F8948C91E22FE095D1
:100600008E238C932881E223E8839FBFDF91CF91D3
:1006100008958FB7F894EC91E22BEC938FBFF6CF4F
:10062000CF93EEECF1E0AFEF90E0208187FF05C0C3
:1006300027FF47C0AF3F41F406C0821709F441C00D
:10064000AF3F11F427FDA92F9F5F3996943169F7C9
:1006500087FD3AC0AF3F09F437C0C82F89E0A80230
:10066000D0011124A253BE4FCC932091CD011196FD
:100670002C9311978C2F0C2E000C990BFC01E85831
:10068000FE4FE491F0E0EE0FFF1FE35CFE4F45915B
:10069000549113965C934E931297FC01E75AFE4FC8
:1006A000E4911496EC93149715966C9360E02111E5
:1006B00061E08C2F0E946E0261E08C2FCF910C9430
:1006C000DF02658387FDBCCFCF9108953FB7F894D3
:1006D0008091B3019091B401A091B501B091B601A0
:1006E00026B5A89B05C02F3F19F00196A11DB11D8D
:1006F0003FBFBA2FA92F982F8827BC01CD01620FC9
:10070000711D811D911D42E0660F771F881F991F83
:100710004A95D1F708958F929F92AF92BF92CF9250
:10072000DF92EF92FF924B015C010E9466036B0126
:100730007C010E9466036C197D098E099F09683E41
:10074000734081059105A8F321E0821A9108A10860
:10075000B10888EEC80E83E0D81EE11CF11C81149C
:100760009104A104B10429F7FF90EF90DF90CF909E
:10077000BF90AF909F908F9008958F929F92AF926D
:10078000BF92CF92DF92EF92FF920F931F93CF937E
:10079000DF936C017B018A0180911501882309F4A4
:1007A0005CC08091CC01882309F457C08091BE01C0
:1007B00080FF05C08091E00082608093E000E80146
:1007C000B12C8AEFA82E93E0892E2AE3922E20974F
:1007D00011F4BB20D9F10E94360181110AC0AA94FC
:1007E000AA20D9F161E070E080E090E00E948B03E4
:1007F000EECF8C171D0611F00CF08C2F9FB7F894DC
:100800008092E9002091E80025FD02C09FBFDFCF64
:10081000282F30E0C21BD30BF701815020F041910B
:100820004093F100FACFE20EF31EBB2021F090922C
:10083000E800B12CEBCF8091E80085FDE7CF9092E6
:10084000E800BB24B394209709F3F3CF5D9A84E6C4
:100850008093BD01101611063CF081E090E0F60196
:100860009383828310E000E0C801DF91CF911F9154
:100870000F91FF90EF90DF90CF90BF90AF909F903F
:100880008F90089581E090E09093AD018093AC014A
:10089000089508950F931F93CF93DF93182FC82FB8
:1008A000C37085E5C89FE0011124612F62956695AC
:1008B000677004E2609FB001112483E00E9410037E
:1008C000812F90E0959587959595879587709927C5
:1008D000089FB001099F700D112484E00E9410034D
:1008E00061E085E00E94DF02209741F460E085E04E
:1008F000DF91CF911F910F910C946E02CF3FD105E4
:1009000011F461E0F4CFE1EBF0E0E491E150EF307D
:1009100008F080C0F0E0E157FB4F0C948B0C9E0474
:10092000A704AC04B604C0040A050A050A05CA04F3
:10093000D404DE04E804F5040A05FD0484B58068E7
:1009400084BDC7BDDF91CF911F910F91089584B5EC
:10095000806284BDC8BDF6CF80918000806880939E
:100960008000D0938900C0938800ECCF80918000F4
:10097000806280938000D0938B00C0938A00E2CF86
:1009800080918000886080938000D0938D00C09318
:100990008C00D8CF80919000806880939000D09395
:1009A0009900C0939800CECF809190008062809390
:1009B0009000D0939B00C0939A00C4CF8091900088
:1009C000886080939000D0939D00C0939C00BACF24
:1009D0008091C00080688093C0008091C0008F7BB0
:1009E0008093C000C093CF00ADCF8091C0008062E3
:1009F0008093C000C093D000A5CF8091C2008860D2
:100A00008093C2008091C2008B7F8093C200C0930C
:100A1000D20098CFC038D1050CF073CF67CF8EBD10
:100A200000000DB407FEFDCF8EB508950F931F9300
:100A3000CF93DF938C01C3EDD2E060E08A810E9406
:100A40006E02C80123E0969587952A95E1F78068A4
:100A50000E940F05802F8295880F807E0E940F05CF
:100A600080E00E940F05182F61E08A810E946E02CB
:100A7000812FDF91CF911F910F9108950F931F93B5
:100A8000CF93DF93C82FD62F03ED12E060E0F8017B
:100A900082810E946E028C2F880F81600E940F0558
:100AA0008D2F0E940F0561E0F8018281DF91CF91C7
:100AB0001F910F910C946E02FF920F931F93CF938F
:100AC000DF93EC01F62E03ED12E060E0F801828185
:100AD0000E946E02CE0123E0969587952A95E1F754
:100AE00080680E940F058C2F8295880F807E806120
:100AF0000E940F058F2D0E940F0561E0F801828191
:100B0000DF91CF911F910F91FF900C946E021F9275
:100B10000F920FB60F9211248F939F938091E10053
:100B20009091E100937F9093E10083FF0FC01092BA
:100B3000E90091E09093EB001092EC0092E3909327
:100B4000ED001092CC0198E09093F00082FF22C05B
:100B500093E09093E9009091F200992319F09AE3C1
:100B60009093E8009091BD01992341F09091BD01CF
:100B700091509093BD01911101C05D989091CB016E
:100B8000992341F09091CB0191509093CB01911119
:100B900001C0289884FF18C08091E2008E7E816099
:100BA0008093E2008091E1008F7E8093E10080914C
:100BB000BE018E7E80618093BE019F918F910F90C8
:100BC0000FBE0F901F90189580FFF7CF8091E20025
:100BD0008E7E80618093E2008091E1008E7E809322
:100BE000E1008091BE018E7E8160E5CF1F920F9261
:100BF0000FB60F921124CF92DF92EF92FF920F93D4
:100C00001F932F933F934F935F936F937F938F9394
:100C10009F93AF93BF93EF93FF93CF93DF93CDB7A2
:100C2000DEB76C97DEBFCDBF1092E9008091E8007F
:100C300083FF25C068E0CE0145960E94610282EFE5
:100C40008093E8008D8987FF39C09091E80090FF7C
:100C5000FCCF982F907609F034C19E894F89588D2A
:100C60002F89F88C911131C0803861F58091BC01D9
:100C70008093F1001092F1008EEF8093E8006C9663
:100C80000FB6F894DEBF0FBECDBFDF91CF91FF91BD
:100C9000EF91BF91AF919F918F917F916F915F91F4
:100CA0004F913F912F911F910F91FF90EF90DF9007
:100CB000CF900F900FBE0F901F9018959EEF9093BE
:100CC000E800C7CF1092F100D5CF913059F48111CF
:100CD000D3CF4130510581F68091BC018D7F809347
:100CE000BC01CACF933049F48111C6CF41305105C0
:100CF00019F68091BC018260F2CF953041F4809169
:100D0000E80080FFFCCF20682093E300B5CF963049
:100D100009F0A9C00B8D1C8D22E01092E900109201
:100D2000BA011092B901F2122EC01092B8011092BD
:100D3000B7010E9430021F8299E09983FA8291E004
:100D40009E8390EA98879AEF99872091B901309114
:100D5000BA01275F3F4F3C832B838D831092E900BC
:100D60001092BA011092B9011093B8010093B70123
:100D700049E050E0BE016F5F7F4F80E00E940A02B1
:100D80000E94300279CF1093B8010093B7010E94FE
:100D90004701DC0112960D911C910115110509F412
:100DA00051C1D801ED91FC910480F581E02DBE0187
:100DB0006B5E7F4FC8010995009709F03EC1F801AD
:100DC00000851185EACFF3E0FF120EC08F898823DA
:100DD00009F440C0823061F440E86DE08FE291E0B8
:100DE0000E94B409811148CF81E28093EB0047CF84
:100DF000813029F440E86BE083E291E0F1CF833069
:100E000099F70E944701DC011296ED90FC908E014B
:100E10000F5F1F4F6801E114F10479F0D701ED91E4
:100E2000FC910680F781E02DB801C7010995080FF4
:100E3000111DF701E084F184EECFD8011C92F60178
:100E400001900020E9F73197BF016C197D0940E05E
:100E5000C601C6CF6DE071E0FB01449150E080E82F
:100E60000E940A0209CF973009F4BECF983021F4CE
:100E700081E08093F10000CF993009F0FDCE8370BE
:100E800009F0B2CFE8E1F1E081E031E096E32191B1
:100E9000222371F08093E9003093EB00DF0111977A
:100EA0002C912093EC009093ED008F5F873079F7C1
:100EB0008EE78093EA001092EA008F898093CC013C
:100EC000DBCE8B8D9C8D1092E9001092BA011092AE
:100ED000B9019093B8018093B701898D811192C0B7
:100EE0008E899D89913A49F4813209F07DCF47E09E
:100EF00050E06EE071E080E0B3CF913209F074CF42
:100F0000833269F48F89988DB0E0A0E080930A0164
:100F100090930B01A0930C01B0930D01ADCE8032E4
:100F200069F48091E80082FFFCCF67E08EE091E0F9
:100F30000E9461028BEF8093E8009ECE823209F01E
:100F40009BCE8F8980931501EEEFFFE785919491F9
:100F50008B3F9C4D51F1E0E0F8E080910E019091C3
:100F60000F01A0911001B0911101803B9440A105A7
:100F7000B105F1F48091150180FD1AC0EE3F8AE0C1
:100F8000F80789F587E797E7918380838091600070
:100F90008093BB0188E19BE00FB6F894A8958093FD
:100FA00060000FBE9093600067CEEEEFFAE0D5CF01
:100FB000808191818737974709F05ECEA89580910F
:100FC00060008861809360008091BB018093600025
:100FD000EE3F2AE0F20789F08091FE0A9091FF0A25
:100FE0009183808349CE808191818737980751F220
:100FF0009093FF0A8093FE0AC5CF1092FF0A1092C9
:10100000FE0A3ACE0E944701DC0112960D911C9116
:101010000115110509F4E8CED801ED91FC9101907C
:10102000F081E02DBE016B5E7F4FC80109958111F3
:1010300023CEF80100851185EBCF181619060CF4A4
:101040001BCED2CEF1E0FF12BECE61E171E004CF43
:101050001F920F920FB60F9211242F933F938F93ED
:101060009F93AF93BF938091AF019091B001A091F6
:10107000B101B091B2013091AE0123E0230F2D37C1
:1010800058F50196A11DB11D2093AE018093AF01CB
:101090009093B001A093B101B093B2018091B301DC
:1010A0009091B401A091B501B091B6010196A11D36
:1010B000B11D8093B3019093B401A093B501B09397
:1010C000B601BF91AF919F918F913F912F910F905A
:1010D0000FBE0F901F90189526E8230F0296A11DB2
:1010E000B11DD2CF1F920F920FB60F9211242F93E2
:1010F0003F934F935F936F937F938F939F93AF93A0
:10110000BF93EF93FF93E0910801F09109010995D6
:10111000FF91EF91BF91AF919F918F917F916F91CF
:101120005F914F913F912F910F900FBE0F901F90A5
:1011300018951F920F920FB60F9211242F933F9381
:101140004F935F936F937F938F939F93AF93BF93CF
:10115000EF93FF93E0910601F09107010995FF914C
:10116000EF91BF91AF919F918F917F916F915F911F
:101170004F913F912F910F900FBE0F901F90189598
:101180001F920F920FB60F9211242F933F934F93FC
:101190005F936F937F938F939F93AF93BF93EF93DF
:1011A000FF93E0910401F09105010995FF91EF9102
:1011B000BF91AF919F918F917F916F915F914F916F
:1011C0003F912F910F900FBE0F901F9018951F9277
:1011D0000F920FB60F9211242F933F934F935F936B
:1011E0006F937F938F939F93AF93BF93EF93FF93EF
:1011F000E0910201F09103010995FF91EF91BF91F8
:10120000AF919F918F917F916F915F914F913F919E
:101210002F910F900FBE0F901F9018951F920F9255
:101220000FB60F9211242F933F934F935F936F93B9
:101230007F938F939F93AF93BF93EF93FF93E0912F
:101240000001F09101010995FF91EF91BF91AF91DC
:101250009F918F917F916F915F914F913F912F91CE
:101260000F900FBE0F901F9018951F920F920FB600
:101270000F9211242F933F934F936F937F938F93EC
:101280009F93AF93BF93EF93FF93809116018F5F6E
:1012900080931601811138C0EEECF1E04781858121
:1012A000411103C090859923E9F090E03681232F06
:1012B00030E0BC01621B730B161617064CF4442376
:1012C00089F0240F311D2817390764F4C9010AC0B9
:1012D000672B41F04085442329F0241B31098217F4
:1012E0009307A4F386838681882349F09181A281A4
:1012F000B3818481911131C09C91892B8C93399653
:1013000082E0E238F80751F6EEECF1E0808187FDEB
:101310000FC080911601968198130AC0A281B381F3
:101320008481918191111DC09C91809589238C931A
:10133000399682E0E238F80749F7FF91EF91BF91C3
:10134000AF919F918F917F916F914F913F912F918D
:101350000F900FBE0F901F9018959C918095892338
:10136000CDCF9C91892BE3CFEF92FF920F931F93E8
:10137000CF93DF93F82E192FE62E042F81E0860FEE
:10138000880F0E94DC0183E00E94DC01CF2DD12F69
:10139000EC0EFD2EF11CCE15DF05B9F007FF13C0D2
:1013A000FE0184910E94DC01182F80E00E94DC0184
:1013B000812321968111EFCFDF91CF911F910F9162
:1013C000FF90EF9008958881EDCF81E0F5CFCF9326
:1013D000109285021092840288EE93E0A0E0B0E0C3
:1013E0008093860290938702A0938802B09389022B
:1013F00082E291E090938302809382028FEF9FEFCD
:1014000090938F0280938E0286E090E09093D402B6
:101410008093D30288E090E09093D6028093D50227
:1014200082E090E09093D8028093D70261E086E05A
:101430000E94DF0261E08091D5020E94DF0260E03D
:101440008091D7020E94DF028CB58F7D8CBD8CB558
:10145000837F8CBDCFB7F8948091D202811127C0D1
:10146000E9E8F1E08491EAE6F1E09491E82FF0E018
:10147000EE0FFF1FE55BFE4FA591B491EC91E923C0
:1014800021F461E081E10E946E0261E081E10E944D
:10149000DF028CB580618CBD8CB580648CBD61E051
:1014A0008FE00E94DF0261E080E10E94DF02809114
:1014B000D2028F5F8093D202CFBF8BE090E09093F7
:1014C000DA028093D902CF910895789484B582602E
:1014D00084BD84B5816084BD85B5826085BD85B5D8
:1014E000816085BD80916E00816080936E00109256
:1014F00081008091810082608093810080918100D1
:101500008160809381008091800081608093800061
:101510008091910082608093910080919100816020
:1015200080939100809190008160809390008091E1
:10153000C10084608093C1008091C100826080936B
:10154000C1008091C10081608093C1008091C3007F
:1015500081608093C3008091C00082608093C0004E
:101560008091C20081608093C20080917A00846083
:1015700080937A0080917A00826080937A008091D3
:101580007A00816080937A0080917A0080688093ED
:101590007A001092CC011092BC011092BE01809191
:1015A000D70081608093D70080EA8093D80089B506
:1015B000806189BD89B5826089BD09B400FEFDCF17
:1015C00061E070E080E090E00E948B038091D800A1
:1015D0008F7C80618093D8008091E000807F809331
:1015E000E0008091E1008E7E8093E1008DE08093A9
:1015F000E200559A209A5D98289817B81092C0007A
:1016000084E08093C1001092C2001092C300109237
:10161000C4001092D10082E88093D10080E48093CE
:101620007200EEECF1E08FEF808311821382128260
:1016300017821086399622E0E238F207A9F7109255
:10164000CD0160E083E00E94100360E084E00E942E
:10165000100361E085E00E94DF0283E00E94F70052
:1016600084E00E94F70061E082E10E946E0261E086
:1016700083E10E946E0261E084E10E946E0261E0FB
:1016800085E10E946E0280E00E944A0460E0809141
:10169000D3020E946E026AE070E080E090E00E9457
:1016A0008B0361E08091D3020E946E0264E170E0DE
:1016B00080E090E00E948B0368E988E10E943E058B
:1016C00065E98EE20E943E0563E080E092E00E94C0
:1016D0005C0561E081E092E00E945C0560E882E0E8
:1016E00092E00E945C0560E986E092E00E945C0561
:1016F00060E887E092E00E945C0560E188E092E0AB
:101700000E945C0561E280E292E00E945C0560E874
:101710008AE30E943E0560E68FE30E943E0560E496
:101720008EE30E943E0566EF82E30E943E0563E180
:1017300080E092E00E945C0564E086E30E943E0542
:1017400060E086E30E943E0561E070E080E090E0AA
:101750000E948B0367E082E00E943E056FED81E00E
:101760000E943E0563E180E092E00E945C0562E435
:1017700084E00E943E0562E083E00E943E0561E055
:1017800080E00E943E0581E08093300182E494E095
:101790009093010180930001809169008C7F8160AA
:1017A00080936900E89A789486B190E0809590954E
:1017B0008F7099279093A9018093A80100E010E011
:1017C0008091AC019091AD01892B09F485C060E056
:1017D0008091D5020E946E0282E60E940F0580E091
:1017E0000E940F05B82E61E08091D5020E946E0222
:1017F000B3FE57C08091AB018F5F8093AB0164E073
:1018000089E30E943E0580E093E00E941605C82F00
:1018100080913001811120C081E3C82E81E0D82E53
:10182000F12CE12CFFEFCF1ADF0A8091310190E01B
:101830002091D9023091DA02821B930BE816F90647
:10184000DCF4C701865F9C4F2FEFE21AF20A0E9478
:101850001605F6018083E6CFF12CE12CCC2ED12C9D
:10186000EC14FD04CCF6C7018F5F9C4FEFEFEE1A2E
:10187000FE0A0E941605F4CFC0933101D0E0CE01DC
:101880008F5F9C4F0E9416058093A601CE018E5F4C
:101890009C4F0E9416058093A70160E089E30E9497
:1018A0003E05B0FE15C08091AA018F5F8093AA010A
:1018B00060E08091D5020E946E0288E40E940F05CC
:1018C00080E00E940F0561E08091D5020E946E02C7
:1018D0001092AD011092AC018091AB01882379F098
:1018E0001092AB01E091A801F091A901EF5CFE4FCD
:1018F00081810E944A0461E08DE00E943E05809152
:10190000AA0181111092AA010115110509F458CFFD
:101910000E94000055CFEE0FFF1F0590F491E02DBF
:061920000994F894FFCFCA
:1019260049044904490449044904FFFFFFFF00E153
:10193600000000000000FF00C180810000000000E0
:1019460000005B01BD037C017101C20180019E01A3
:00000001FF
