:107E000001C0E5C0112484B7803061F0982F9A70CA
:107E1000923041F081FF02C097EF94BF282E80E09E
:107E2000C1D0EEC085E08093810082E08093C000E5
:107E300088E18093C10086E08093C20089E180934D
:107E4000C4008EE0AFD0259A86E028E13EEF91E0B5
:107E5000309385002093840096BBB09BFECF1D9A83
:107E6000A8954091C00047FD02C0815089F78ED08F
:107E7000853509F447C080F4853409F441C038F4ED
:107E8000813481F1823409F438C092D033C0813515
:107E9000E1F788E087D0F9CF843709F45FC0C8F4F0
:107EA000863509F436C0843681F770D06FD0F82E4D
:107EB0006DD0E82E00E011E068010F5F1F4F66D023
:107EC000F6018083F012F8CF73D08E2D853429F51A
:107ED000FFCF8537D1F66CD08EE151D085E94FD0F8
:107EE0008FE007C053D0182F63D083E0113809F416
:107EF00088E045D080E143D0BACF84E161D0FACFA9
:107F000085E0FCCF43D0C82F41D0D82FCC0FDD1F48
:107F1000BCCF84E055D080E0ECCF83E0FE0187BF8A
:107F2000E89507B600FCFDCFFE0180E091E021E07E
:107F3000DC0102964D915D910A0127BFE89511245D
:107F40003296F812F5CF85E0FE0187BFE89507B6B7
:107F500000FCFDCF81E187BFE895CCCF17D016D0CC
:107F6000F82E14D0182F24D0153409F4FFCF8E0129
:107F7000F80185918F0103D0FA94D1F7BBCF90918E
:107F8000C00095FFFCCF8093C60008958091C0008B
:107F900087FFFCCF8091C00084FD01C0A89580912F
:107FA000C600089598E19093600080936000089562
:107FB000EDDF803219F088E0F5DFFFCF84E1DFCF1D
:107FC000CF93C82FE3DFC150E9F7CF91F1CFFC0188
:107FD0000A0167BFE895112407B600FCFDCF667063
:0E7FE00029F0452B19F481E187BFE89508953B
:027FFE00030876
:0400000300007E007B
:00000001FF
