:100000000C9462000C948A000C948A000C948A0070
:100010000C948A000C948A000C948A000C948A0038
:100020000C948A000C948A000C948A000C948A0028
:100030000C948A000C948A000C948A000C948A0018
:100040000C940F020C948A000C947F020C945902B9
:100050000C948A000C948A000C948A000C948A00F8
:100060000C948A000C948A000000000025002800EF
:100070002B0000000000240027002A0000000000E0
:1000800023002600290004040404040404040202DA
:100090000202020203030303030301020408102007
:1000A0004080010204081020010204081020000012
:1000B0000008000201000003040700000000000027
:1000C00000001B0411241FBECFEFD8E0DEBFCDBF60
:1000D00011E0A0E0B1E0E4EEF8E002C005900D927E
:1000E000A633B107D9F721E0A6E3B1E001C01D9224
:1000F000AC3DB207E1F710E0C2E6D0E004C02197C2
:10010000FE010E946A04C136D107C9F70E94B102FC
:100110000C9470040C9400003FB7F89480913B015C
:1001200090913C01A0913D01B0913E0126B5A89B64
:1001300005C02F3F19F00196A11DB11D3FBFBA2F79
:10014000A92F982F8827BC01CD01620F711D811D39
:10015000911D43E0660F771F881F991F4A95D1F7BD
:100160000895AF92BF92CF92DF92EF92FF920F93DA
:100170001F93CF93DF936C017B018B01040F151F3D
:10018000EB015E01AE18BF08C017D10759F06991A5
:10019000D601ED91FC910190F081E02DC601099509
:1001A000892B79F7C501DF91CF911F910F91FF90B6
:1001B000EF90DF90CF90BF90AF900895FC01538DEA
:1001C000448D252F30E0842F90E0821B930B541731
:1001D00010F0CF96089501970895FC01918D828DBE
:1001E000981761F0A28DAE0FBF2FB11D5D968C9157
:1001F000928D9F5F9F73928F90E008958FEF9FEF96
:100200000895FC01918D828D981731F0828DE80F51
:10021000F11D858D90E008958FEF9FEF0895FC010B
:10022000918D228D892F90E0805C9F4F821B9109D8
:100230008F73992708958FE391E00E940F0121E0C9
:10024000892B09F420E0822F089580E090E0892B2B
:1002500029F00E941B0181110C9400000895FC01FB
:10026000A48DA80FB92FB11DA35ABF4F2C91848D17
:1002700090E001968F739927848FA689B7892C9374
:10028000A089B1898C91837080648C93938D848DC7
:10029000981306C00288F389E02D80818F7D8083CA
:1002A0000895EF92FF920F931F93CF93DF93EC018A
:1002B00081E0888F9B8D8C8D98131AC0E889F9890D
:1002C000808185FF15C09FB7F894EE89FF89608310
:1002D000E889F98980818370806480839FBF81E091
:1002E00090E0DF91CF911F910F91FF90EF900895D3
:1002F000F62E0B8D10E00F5F1F4F0F731127E02EAE
:100300008C8D8E110CC00FB607FCFACFE889F989E5
:10031000808185FFF5CFCE010E942F01F1CFEB8DBB
:10032000EC0FFD2FF11DE35AFF4FF0829FB7F894B9
:100330000B8FEA89FB8980818062CFCFCF93DF93D7
:10034000EC01888D8823B9F0AA89BB89E889F989ED
:100350008C9185FD03C0808186FD0DC00FB607FC22
:10036000F7CF8C9185FFF2CF808185FFEDCFCE0155
:100370000E942F01E9CFDF91CF910895FC010190F8
:100380000020E9F73197AF01481B590BBC018FE3FF
:1003900091E00C94B1008F929F92AF92BF920F9315
:1003A0001F93CF93DF93CDB7DEB7A1970FB6F89425
:1003B000DEBF0FBECDBF19A2423008F44AE08E0165
:1003C0000F5D1F4F842E912CB12CA12CA5019401FF
:1003D0000E944804E62FB901CA01EA30F4F4E05D56
:1003E000D801EE938D01232B242B252B79F790E058
:1003F00080E0109719F0CD010E94BE01A1960FB6C2
:10040000F894DEBF0FBECDBFDF91CF911F910F914A
:10041000BF90AF909F908F900895E95CE1CF1F92BD
:100420000F920FB60F9211242F933F938F939F93A8
:10043000AF93BF938091370190913801A09139011A
:10044000B0913A013091360126E0230F2D3758F54F
:100450000296A11DB11D2093360180933701909320
:100460003801A0933901B0933A0180913B019091FA
:100470003C01A0913D01B0913E010196A11DB11D2D
:1004800080933B0190933C01A0933D01B0933E01CA
:10049000BF91AF919F918F913F912F910F900FBE80
:1004A0000F901F90189529E8230F0396A11DB11DE9
:1004B000D2CF1F920F920FB60F9211242F933F931A
:1004C0004F935F936F937F938F939F93AF93BF935C
:1004D000EF93FF938FE391E00E942F01FF91EF9143
:1004E000BF91AF919F918F917F916F915F914F914C
:1004F0003F912F910F900FBE0F901F9018951F9254
:100500000F920FB60F9211242F938F939F93EF9317
:10051000FF93E0914F01F09150018081E0915501EE
:10052000F091560182FD1BC09081809158018F5F30
:100530008F7320915901821741F0E0915801F0E04A
:10054000E15CFE4F958F80935801FF91EF919F9151
:100550008F912F910F900FBE0F901F901895808153
:10056000F4CF789484B5826084BD84B5816084BD05
:1005700085B5826085BD85B5816085BD80916E0041
:10058000816080936E001092810080918100826072
:1005900080938100809181008160809381008091AF
:1005A00080008160809380008091B100846080939E
:1005B000B1008091B00081608093B00080917A009A
:1005C000846080937A0080917A00826080937A00C0
:1005D00080917A008E7F80937A0080917A00806883
:1005E00080937A001092C100E0914F01F091500188
:1005F00082E08083E0914B01F0914C011082E09108
:100600004D01F0914E0187E6808310925701E091F1
:100610005301F091540186E08083E0915101F09103
:100620005201808180618083E0915101F0915201FB
:10063000808188608083E0915101F0915201808136
:1006400080688083E0915101F091520180818F7D1B
:1006500080832AE131E0A2E1B1E08D9190E0FC01DC
:10066000E656FF4F44918A579F4FFC01849188239F
:10067000C9F090E0880F991FFC01EE58FF4FC5911B
:10068000D491FC01E859FF4F659174919FB7F8949C
:100690005881842F809585238883EB01E8814E2B38
:1006A00048839FBF2A173B07C1F6CC24C394D12CA3
:1006B00030E0E32E30E0F32E8AE191E00E94BE01AB
:1006C00002E111E0D0E0C0E0B12CAC2EF801819144
:1006D0008F0190E0FC01E255FF4F2491FC01E656AA
:1006E000FF4F3491FC01EA57FF4FE491912C812C8C
:1006F000EE23E1F0222359F0233009F485C008F0FD
:1007000078C0213009F486C0223009F487C0F0E0B7
:10071000EE0FFF1FE458FF4FA591B491EC913E23DB
:1007200091E080E009F490E0892E982EB401990CB4
:10073000880B990B4AE00E94CB01811006C0C601CC
:1007400001C0880FAA94EAF7B82A2196C830D105CB
:1007500009F0BBCF86E291E00E94BE018B2C912C68
:10076000B12CA12C4AE0C501B4010E94CB018CE25E
:1007700091E00E94BE0142E0C501B4010E94CB019C
:1007800081E391E00E94BE0183E391E00E94BE01FB
:100790000E948C002B013C018CE2882E99249394BA
:1007A000A12CB12C0E948C00641975098609970947
:1007B000683E734081059105A8F3F1E08F1A910816
:1007C000A108B10828EE420E23E0521E611C711CE4
:1007D00081149104A104B10429F7E114F10409F48E
:1007E0006BCF0E941B01882309F466CF0E94000092
:1007F00063CF2730B1F02830D1F0243009F087CF13
:10080000809180008F7D03C0809180008F778093DE
:1008100080007DCF84B58F7784BD79CF84B58F7DFF
:10082000FBCF8091B0008F778093B00070CF809124
:10083000B0008F7DF9CFEFE3F1E01382128288EEF2
:1008400093E0A0E0B0E084839583A683B78384E03F
:1008500091E09183808385EC90E09587848784EC98
:1008600090E09787868780EC90E0918B808B81EC7D
:1008700090E0938B828B82EC90E0958B848B86EC5E
:1008800090E0978B868B118E128E138E148E0895A6
:10089000A1E21A2EAA1BBB1BFD010DC0AA1FBB1F84
:1008A000EE1FFF1FA217B307E407F50720F0A21BF6
:1008B000B30BE40BF50B661F771F881F991F1A9463
:1008C00069F760957095809590959B01AC01BD018D
:1008D000CF010895EE0FFF1F0590F491E02D0994CC
:0408E000F894FFCFBA
:1008E400000000005101B100DE009E010F01ED0087
:1008F40001010E0F10111213090A4453312D38202F
:100904007261773A2000202069643D00202830621B
:060914000029000D0A009D
:00000001FF
